{
  "_format": "hh-sol-artifact-1",
  "contractName": "GradingSystem",
  "sourceName": "contracts/GradingSystem.sol",
  "abi": [
    {
      "inputs": [],
      "stateMutability": "nonpayable",
      "type": "constructor"
    },
    {
      "inputs": [
        {
          "internalType": "address",
          "name": "sender",
          "type": "address"
        },
        {
          "internalType": "uint256",
          "name": "tokenId",
          "type": "uint256"
        },
        {
          "internalType": "address",
          "name": "owner",
          "type": "address"
        }
      ],
      "name": "ERC721IncorrectOwner",
      "type": "error"
    },
    {
      "inputs": [
        {
          "internalType": "address",
          "name": "operator",
          "type": "address"
        },
        {
          "internalType": "uint256",
          "name": "tokenId",
          "type": "uint256"
        }
      ],
      "name": "ERC721InsufficientApproval",
      "type": "error"
    },
    {
      "inputs": [
        {
          "internalType": "address",
          "name": "approver",
          "type": "address"
        }
      ],
      "name": "ERC721InvalidApprover",
      "type": "error"
    },
    {
      "inputs": [
        {
          "internalType": "address",
          "name": "operator",
          "type": "address"
        }
      ],
      "name": "ERC721InvalidOperator",
      "type": "error"
    },
    {
      "inputs": [
        {
          "internalType": "address",
          "name": "owner",
          "type": "address"
        }
      ],
      "name": "ERC721InvalidOwner",
      "type": "error"
    },
    {
      "inputs": [
        {
          "internalType": "address",
          "name": "receiver",
          "type": "address"
        }
      ],
      "name": "ERC721InvalidReceiver",
      "type": "error"
    },
    {
      "inputs": [
        {
          "internalType": "address",
          "name": "sender",
          "type": "address"
        }
      ],
      "name": "ERC721InvalidSender",
      "type": "error"
    },
    {
      "inputs": [
        {
          "internalType": "uint256",
          "name": "tokenId",
          "type": "uint256"
        }
      ],
      "name": "ERC721NonexistentToken",
      "type": "error"
    },
    {
      "inputs": [],
      "name": "GradingSystem__AdminOnly",
      "type": "error"
    },
    {
      "anonymous": false,
      "inputs": [
        {
          "indexed": true,
          "internalType": "address",
          "name": "owner",
          "type": "address"
        },
        {
          "indexed": true,
          "internalType": "address",
          "name": "approved",
          "type": "address"
        },
        {
          "indexed": true,
          "internalType": "uint256",
          "name": "tokenId",
          "type": "uint256"
        }
      ],
      "name": "Approval",
      "type": "event"
    },
    {
      "anonymous": false,
      "inputs": [
        {
          "indexed": true,
          "internalType": "address",
          "name": "owner",
          "type": "address"
        },
        {
          "indexed": true,
          "internalType": "address",
          "name": "operator",
          "type": "address"
        },
        {
          "indexed": false,
          "internalType": "bool",
          "name": "approved",
          "type": "bool"
        }
      ],
      "name": "ApprovalForAll",
      "type": "event"
    },
    {
      "anonymous": false,
      "inputs": [
        {
          "indexed": false,
          "internalType": "uint256",
          "name": "_fromTokenId",
          "type": "uint256"
        },
        {
          "indexed": false,
          "internalType": "uint256",
          "name": "_toTokenId",
          "type": "uint256"
        }
      ],
      "name": "BatchMetadataUpdate",
      "type": "event"
    },
    {
      "anonymous": false,
      "inputs": [
        {
          "indexed": false,
          "internalType": "uint256",
          "name": "_tokenId",
          "type": "uint256"
        }
      ],
      "name": "MetadataUpdate",
      "type": "event"
    },
    {
      "anonymous": false,
      "inputs": [
        {
          "indexed": true,
          "internalType": "address",
          "name": "from",
          "type": "address"
        },
        {
          "indexed": true,
          "internalType": "address",
          "name": "to",
          "type": "address"
        },
        {
          "indexed": true,
          "internalType": "uint256",
          "name": "tokenId",
          "type": "uint256"
        }
      ],
      "name": "Transfer",
      "type": "event"
    },
    {
      "inputs": [
        {
          "internalType": "string",
          "name": "_courseId",
          "type": "string"
        },
        {
          "internalType": "string",
          "name": "_courseCode",
          "type": "string"
        },
        {
          "internalType": "string",
          "name": "_courseName",
          "type": "string"
        },
        {
          "internalType": "uint256",
          "name": "_year",
          "type": "uint256"
        },
        {
          "internalType": "uint256",
          "name": "_semester",
          "type": "uint256"
        },
        {
          "internalType": "uint256",
          "name": "_theoryCredits",
          "type": "uint256"
        },
        {
          "internalType": "uint256",
          "name": "_labCredits",
          "type": "uint256"
        },
        {
          "internalType": "uint256",
          "name": "_theoryISEWeightage",
          "type": "uint256"
        },
        {
          "internalType": "uint256",
          "name": "_theoryMSEWeightage",
          "type": "uint256"
        },
        {
          "internalType": "uint256",
          "name": "_theoryESEWeightage",
          "type": "uint256"
        },
        {
          "internalType": "uint256",
          "name": "_labISEWeightage",
          "type": "uint256"
        },
        {
          "internalType": "uint256",
          "name": "_labMSEWeightage",
          "type": "uint256"
        },
        {
          "internalType": "uint256",
          "name": "_labESEWeightage",
          "type": "uint256"
        }
      ],
      "name": "addCourse",
      "outputs": [],
      "stateMutability": "nonpayable",
      "type": "function"
    },
    {
      "inputs": [
        {
          "internalType": "string",
          "name": "_uid",
          "type": "string"
        },
        {
          "internalType": "string",
          "name": "_courseId",
          "type": "string"
        },
        {
          "internalType": "uint256",
          "name": "_marks",
          "type": "uint256"
        }
      ],
      "name": "addCourseMarks",
      "outputs": [],
      "stateMutability": "nonpayable",
      "type": "function"
    },
    {
      "inputs": [
        {
          "internalType": "string",
          "name": "_uid",
          "type": "string"
        },
        {
          "internalType": "uint256",
          "name": "_semester",
          "type": "uint256"
        },
        {
          "internalType": "string",
          "name": "_courseId",
          "type": "string"
        }
      ],
      "name": "addCourseToStudent",
      "outputs": [],
      "stateMutability": "nonpayable",
      "type": "function"
    },
    {
      "inputs": [
        {
          "internalType": "string",
          "name": "_uid",
          "type": "string"
        },
        {
          "internalType": "uint256",
          "name": "_semester",
          "type": "uint256"
        },
        {
          "internalType": "uint256",
          "name": "_sgpa",
          "type": "uint256"
        }
      ],
      "name": "addSGPA",
      "outputs": [],
      "stateMutability": "nonpayable",
      "type": "function"
    },
    {
      "inputs": [
        {
          "internalType": "string",
          "name": "_uid",
          "type": "string"
        },
        {
          "internalType": "string",
          "name": "_name",
          "type": "string"
        },
        {
          "internalType": "string",
          "name": "_branch",
          "type": "string"
        },
        {
          "internalType": "uint256",
          "name": "_currentSemester",
          "type": "uint256"
        },
        {
          "internalType": "uint256",
          "name": "_batch",
          "type": "uint256"
        },
        {
          "internalType": "string",
          "name": "_phone",
          "type": "string"
        },
        {
          "internalType": "string",
          "name": "_email",
          "type": "string"
        }
      ],
      "name": "addStudent",
      "outputs": [],
      "stateMutability": "nonpayable",
      "type": "function"
    },
    {
      "inputs": [
        {
          "internalType": "address",
          "name": "to",
          "type": "address"
        },
        {
          "internalType": "uint256",
          "name": "tokenId",
          "type": "uint256"
        }
      ],
      "name": "approve",
      "outputs": [],
      "stateMutability": "nonpayable",
      "type": "function"
    },
    {
      "inputs": [
        {
          "internalType": "address",
          "name": "owner",
          "type": "address"
        }
      ],
      "name": "balanceOf",
      "outputs": [
        {
          "internalType": "uint256",
          "name": "",
          "type": "uint256"
        }
      ],
      "stateMutability": "view",
      "type": "function"
    },
    {
      "inputs": [
        {
          "internalType": "uint256",
          "name": "tokenId",
          "type": "uint256"
        }
      ],
      "name": "getApproved",
      "outputs": [
        {
          "internalType": "address",
          "name": "",
          "type": "address"
        }
      ],
      "stateMutability": "view",
      "type": "function"
    },
    {
      "inputs": [
        {
          "internalType": "string",
          "name": "_courseId",
          "type": "string"
        }
      ],
      "name": "getCourseDetails",
      "outputs": [
        {
          "components": [
            {
              "internalType": "string",
              "name": "courseId",
              "type": "string"
            },
            {
              "internalType": "string",
              "name": "courseCode",
              "type": "string"
            },
            {
              "internalType": "string",
              "name": "courseName",
              "type": "string"
            },
            {
              "internalType": "uint256",
              "name": "year",
              "type": "uint256"
            },
            {
              "internalType": "enum GradingSystem.courseSemester",
              "name": "semester",
              "type": "uint8"
            },
            {
              "internalType": "uint256",
              "name": "theoryCredits",
              "type": "uint256"
            },
            {
              "internalType": "uint256",
              "name": "labCredits",
              "type": "uint256"
            },
            {
              "internalType": "uint256",
              "name": "theoryISEWeightage",
              "type": "uint256"
            },
            {
              "internalType": "uint256",
              "name": "theoryMSEWeightage",
              "type": "uint256"
            },
            {
              "internalType": "uint256",
              "name": "theoryESEWeightage",
              "type": "uint256"
            },
            {
              "internalType": "uint256",
              "name": "labISEWeightage",
              "type": "uint256"
            },
            {
              "internalType": "uint256",
              "name": "labMSEWeightage",
              "type": "uint256"
            },
            {
              "internalType": "uint256",
              "name": "labESEWeightage",
              "type": "uint256"
            },
            {
              "internalType": "uint256",
              "name": "saScore",
              "type": "uint256"
            },
            {
              "internalType": "enum GradingSystem.courseMarksLockedState",
              "name": "areMarksLocked",
              "type": "uint8"
            },
            {
              "internalType": "string[]",
              "name": "students",
              "type": "string[]"
            }
          ],
          "internalType": "struct GradingSystem.Course",
          "name": "",
          "type": "tuple"
        }
      ],
      "stateMutability": "view",
      "type": "function"
    },
    {
      "inputs": [],
      "name": "getCourses",
      "outputs": [
        {
          "internalType": "string[]",
          "name": "",
          "type": "string[]"
        }
      ],
      "stateMutability": "view",
      "type": "function"
    },
    {
      "inputs": [
        {
          "internalType": "string",
          "name": "_uid",
          "type": "string"
        }
      ],
      "name": "getStudent",
      "outputs": [
        {
          "components": [
            {
              "internalType": "string",
              "name": "name",
              "type": "string"
            },
            {
              "internalType": "string",
              "name": "branch",
              "type": "string"
            },
            {
              "internalType": "string",
              "name": "uid",
              "type": "string"
            },
            {
              "internalType": "uint256",
              "name": "batch",
              "type": "uint256"
            },
            {
              "internalType": "string",
              "name": "email",
              "type": "string"
            },
            {
              "internalType": "string",
              "name": "phone",
              "type": "string"
            },
            {
              "internalType": "uint256",
              "name": "cgpa",
              "type": "uint256"
            },
            {
              "internalType": "uint256[]",
              "name": "sgpa",
              "type": "uint256[]"
            },
            {
              "internalType": "uint256[]",
              "name": "scorecards",
              "type": "uint256[]"
            },
            {
              "internalType": "uint256",
              "name": "currentSemester",
              "type": "uint256"
            },
            {
              "internalType": "string[][]",
              "name": "semCourses",
              "type": "string[][]"
            }
          ],
          "internalType": "struct GradingSystem.Student",
          "name": "",
          "type": "tuple"
        }
      ],
      "stateMutability": "view",
      "type": "function"
    },
    {
      "inputs": [
        {
          "internalType": "string",
          "name": "_uid",
          "type": "string"
        },
        {
          "internalType": "string",
          "name": "_courseId",
          "type": "string"
        }
      ],
      "name": "getStudentCourseMarks",
      "outputs": [
        {
          "internalType": "uint256",
          "name": "",
          "type": "uint256"
        }
      ],
      "stateMutability": "view",
      "type": "function"
    },
    {
      "inputs": [
        {
          "internalType": "uint256",
          "name": "_batch",
          "type": "uint256"
        },
        {
          "internalType": "string",
          "name": "_branch",
          "type": "string"
        }
      ],
      "name": "getStudents",
      "outputs": [
        {
          "internalType": "string[]",
          "name": "",
          "type": "string[]"
        }
      ],
      "stateMutability": "view",
      "type": "function"
    },
    {
      "inputs": [
        {
          "internalType": "address",
          "name": "owner",
          "type": "address"
        },
        {
          "internalType": "address",
          "name": "operator",
          "type": "address"
        }
      ],
      "name": "isApprovedForAll",
      "outputs": [
        {
          "internalType": "bool",
          "name": "",
          "type": "bool"
        }
      ],
      "stateMutability": "view",
      "type": "function"
    },
    {
      "inputs": [
        {
          "internalType": "string",
          "name": "_courseId",
          "type": "string"
        }
      ],
      "name": "lockCourseMarks",
      "outputs": [],
      "stateMutability": "nonpayable",
      "type": "function"
    },
    {
      "inputs": [],
      "name": "name",
      "outputs": [
        {
          "internalType": "string",
          "name": "",
          "type": "string"
        }
      ],
      "stateMutability": "view",
      "type": "function"
    },
    {
      "inputs": [
        {
          "internalType": "uint256",
          "name": "tokenId",
          "type": "uint256"
        }
      ],
      "name": "ownerOf",
      "outputs": [
        {
          "internalType": "address",
          "name": "",
          "type": "address"
        }
      ],
      "stateMutability": "view",
      "type": "function"
    },
    {
      "inputs": [
        {
          "internalType": "address",
          "name": "from",
          "type": "address"
        },
        {
          "internalType": "address",
          "name": "to",
          "type": "address"
        },
        {
          "internalType": "uint256",
          "name": "tokenId",
          "type": "uint256"
        }
      ],
      "name": "safeTransferFrom",
      "outputs": [],
      "stateMutability": "nonpayable",
      "type": "function"
    },
    {
      "inputs": [
        {
          "internalType": "address",
          "name": "from",
          "type": "address"
        },
        {
          "internalType": "address",
          "name": "to",
          "type": "address"
        },
        {
          "internalType": "uint256",
          "name": "tokenId",
          "type": "uint256"
        },
        {
          "internalType": "bytes",
          "name": "data",
          "type": "bytes"
        }
      ],
      "name": "safeTransferFrom",
      "outputs": [],
      "stateMutability": "nonpayable",
      "type": "function"
    },
    {
      "inputs": [
        {
          "internalType": "address",
          "name": "operator",
          "type": "address"
        },
        {
          "internalType": "bool",
          "name": "approved",
          "type": "bool"
        }
      ],
      "name": "setApprovalForAll",
      "outputs": [],
      "stateMutability": "nonpayable",
      "type": "function"
    },
    {
      "inputs": [
        {
          "internalType": "bytes4",
          "name": "interfaceId",
          "type": "bytes4"
        }
      ],
      "name": "supportsInterface",
      "outputs": [
        {
          "internalType": "bool",
          "name": "",
          "type": "bool"
        }
      ],
      "stateMutability": "view",
      "type": "function"
    },
    {
      "inputs": [],
      "name": "symbol",
      "outputs": [
        {
          "internalType": "string",
          "name": "",
          "type": "string"
        }
      ],
      "stateMutability": "view",
      "type": "function"
    },
    {
      "inputs": [
        {
          "internalType": "uint256",
          "name": "tokenId",
          "type": "uint256"
        }
      ],
      "name": "tokenURI",
      "outputs": [
        {
          "internalType": "string",
          "name": "",
          "type": "string"
        }
      ],
      "stateMutability": "view",
      "type": "function"
    },
    {
      "inputs": [
        {
          "internalType": "address",
          "name": "from",
          "type": "address"
        },
        {
          "internalType": "address",
          "name": "to",
          "type": "address"
        },
        {
          "internalType": "uint256",
          "name": "tokenId",
          "type": "uint256"
        }
      ],
      "name": "transferFrom",
      "outputs": [],
      "stateMutability": "nonpayable",
      "type": "function"
    },
    {
      "inputs": [
        {
          "internalType": "string",
          "name": "_uid",
          "type": "string"
        },
        {
          "internalType": "uint256",
          "name": "_cgpa",
          "type": "uint256"
        }
      ],
      "name": "updateCGPA",
      "outputs": [],
      "stateMutability": "nonpayable",
      "type": "function"
    },
    {
      "inputs": [
        {
          "internalType": "string",
          "name": "_uid",
          "type": "string"
        },
        {
          "internalType": "uint256",
          "name": "_semester",
          "type": "uint256"
        },
        {
          "internalType": "string",
          "name": "_scorecardURI",
          "type": "string"
        }
      ],
      "name": "uploadScorecard",
      "outputs": [],
      "stateMutability": "nonpayable",
      "type": "function"
    }
  ],
  "bytecode": "0x6080346200031e576001600160401b03906040908082018381118282101762000308578252600e81526020906d47726164696e672053797374656d60901b828201528251938385018581108282111762000308578452600985526814d8dbdc9958d85c9960ba1b83860152815181811162000308576000938454916001948584811c94168015620002fd575b83851014620002e9578190601f9485811162000296575b5083908583116001146200023257889262000226575b5050600019600383901b1c191690851b1785555b8651928311620002125783548481811c9116801562000207575b82821014620001f357828111620001ab575b50809183116001146200014457508394958293949262000138575b5050600019600383901b1c191690821b1790555b60075551612ddc9081620003248239f35b01519050388062000113565b90601f198316968486528286209286905b8982106200019357505083859697981062000179575b505050811b01905562000127565b015160001960f88460031b161c191690553880806200016b565b80878596829496860151815501950193019062000155565b8486528186208380860160051c820192848710620001e9575b0160051c019085905b828110620001dd575050620000f8565b878155018590620001cd565b92508192620001c4565b634e487b7160e01b86526022600452602486fd5b90607f1690620000e6565b634e487b7160e01b85526041600452602485fd5b015190503880620000b8565b8880528489208894509190601f1984168a5b878282106200027f575050841162000265575b505050811b018555620000cc565b015160001960f88460031b161c1916905538808062000257565b8385015186558b9790950194938401930162000244565b9091508780528388208580850160051c820192868610620002df575b918991869594930160051c01915b828110620002d0575050620000a2565b8a8155859450899101620002c0565b92508192620002b2565b634e487b7160e01b87526022600452602487fd5b93607f16936200008b565b634e487b7160e01b600052604160045260246000fd5b600080fdfe608080604052600436101561001357600080fd5b60003560e01c90816301ffc9a7146123f95750806302c06a0c1461200a57806306fdde0314611f67578063081812fc14611f29578063095ea7b314611e42578063108b024a1461177e57806312bcc26e146116ff5780631eec6b861461168957806323b872dd146116725780632f76ade31461161e57806342842e0e146115f057806353f5c185146113465780635c4a427e14610a095780636352211e146109d957806370a08231146109805780638bd61bec146108bf57806395d89b41146107fa5780639df3bb0a14610787578063a22cb465146106e2578063b6cbe30214610643578063b88d4fde146105d9578063c87b56dd14610580578063cc126479146104e5578063d02966121461020d578063d15ed913146101985763e985e9c51461013d57600080fd5b34610193576040366003190112610193576101566125f3565b61015e612609565b9060018060a01b03809116600052600560205260406000209116600052602052602060ff604060002054166040519015158152f35b600080fd5b34610193576060366003190112610193576004356001600160401b038111610193576101f160076101d061020b93369060040161247e565b60405192918190843782019160088352602081602435940301902001612bf3565b6044359082549060031b91821b91600019901b1916179055565b005b34610193576020366003190112610193576004356001600160401b0381116101935761023f602091369060040161247e565b91906060610140604051610252816124c7565b82815282858201528260408201526000838201528260808201528260a0820152600060c08201528260e0820152826101008201526000610120820152015282604051938492833781016008815203019020604051906102b0826124c7565b6102b981612728565b82526102c760018201612728565b60208301526102d860028201612728565b6040830152600381015460608301526102f360048201612728565b608083015261030460058201612728565b60a0830152600681015460c083015261031f60078201612d02565b60e083015261033060088201612d02565b6101008301526009810154610120830152600a81015461034f81612ad7565b9161035d604051938461251a565b818352600a60208401910160005260206000206000915b8383106104c857858561014082015260405180916020825261014061045461043c61041b6104056103e56103cf6103b9885161016060208c01526101808b01906125ce565b60208901518a8203601f190160408c01526125ce565b6040880151898203601f190160608b01526125ce565b606087015160808901526080870151601f198983030160a08a01526125ce565b60a0860151878203601f190160c08901526125ce565b60c085015160e087015260e0850151601f19878303016101008801526126ba565b610100840151858203601f19016101208701526126ba565b9161012081015182850152015190601f1983820301610160840152815180825260208201916020808360051b8301019401926000915b8383106104975786860387f35b9193955091936020806104b6600193601f19868203018752895161261f565b9701930193019092869594929361048a565b6001602081926104d785612d51565b815201920192019190610374565b3461019357600036600319011261019357600b5461050281612ad7565b90610510604051928361251a565b808252600b6000908152602091907f0175b7a638427703f0dbe7bb9bbf987a2551717b34e79f33b5b1008d1fa01db9838086015b848410610562576040518281528061055e8185018a61261f565b0390f35b600191829161057085612728565b8152019201920191908490610544565b346101935760203660031901126101935760043561059d81612954565b50600052600660205261055e6105b66040600020612728565b60006040516105c4816124e3565b526040519182916020835260208301906125ce565b34610193576080366003190112610193576105f26125f3565b6105fa612609565b90604435606435926001600160401b03841161019357366023850112156101935761063261020b943690602481600401359101612556565b9261063e8383836127ce565b61298f565b34610193576020366003190112610193576004356001600160401b0381116101935761067390369060040161247e565b33600052600d60205260ff6040600020541660038110156106cc576002036106ba576020600e92826040519384928337600a9082019081520301902001805460ff19169055005b6040516389a5d88b60e01b8152600490fd5b634e487b7160e01b600052602160045260246000fd5b34610193576040366003190112610193576106fb6125f3565b60243590811515809203610193576001600160a01b031690811561076e57336000526005602052604060002082600052602052604060002060ff1981541660ff83161790556040519081527f17307eab39ab6107e8899845ad3d59bd9653f200f220920489ca2b5937696c3160203392a3005b604051630b61174360e31b815260048101839052602490fd5b34610193576060366003190112610193576001600160401b03600435818111610193576107b890369060040161247e565b602492919235918211610193576107d66107f792369060040161247e565b909180604051958637840193600c8552602081604435960301902091612aee565b55005b34610193576000366003190112610193576040516000906001805461081e816126ee565b808452908281169081156108975750600114610859575b61055e836108458187038261251a565b6040519182916020835260208301906125ce565b92508060005260209283600020916000925b8284106108845750505081019091019061084581610835565b805485850187015292850192810161086b565b61055e955061084593506020915091849260ff191682840152151560051b8201019350610835565b34610193576060366003190112610193576001600160401b03600435818111610193576108f090369060040161247e565b90602435926044359081116101935761090d90369060040161247e565b600a60409592955185858237602081878101600881520301902001600019830192831161096a57856109518361020b9861094b600f97602096612bf3565b50612c0b565b8260405193849283378101600a81520301902001612c0b565b634e487b7160e01b600052601160045260246000fd5b34610193576020366003190112610193576001600160a01b036109a16125f3565b1680156109c05760005260036020526020604060002054604051908152f35b6040516322718ad960e21b815260006004820152602490fd5b346101935760203660031901126101935760206109f7600435612954565b6040516001600160a01b039091168152f35b346101935760e0366003190112610193576004356001600160401b03811161019357610a3990369060040161247e565b6024356001600160401b03811161019357610a5890369060040161247e565b6044939193356001600160401b03811161019357610a7a90369060040161247e565b91909460a4356001600160401b03811161019357610a9c90369060040161247e565b60c4356001600160401b03811161019357610abb90369060040161247e565b92909160405192610acb846124fe565b6008845261010036602086013760405194610ae5866124fe565b6008865261010036602088013760405196610aff886124e3565b6000885260405198610b108a6124c7565b3690610b1b92612556565b8852610b28368a8e612556565b6020890152610b38368c8c612556565b604089015260843560608901523690610b5092612556565b60808701523690610b6092612556565b60a0850152600060c085015260e08401526101008301526064356101208301526101408201526040518484823780858101600881520360200190209080518051906001600160401b038211610fb8578190610bc582610bbf87546126ee565b87612b1e565b602090601f83116001146112da576000926112cf575b50508160011b916000199060031b1c19161782555b60208101518051906001600160401b038211610fb8578190610c2282610c1960018801546126ee565b60018801612b1e565b602090601f831160011461125d57600092611252575b50508160011b916000199060031b1c19161760018301555b60408101518051906001600160401b038211610fb8578190610c8282610c7960028801546126ee565b60028801612b1e565b602090601f83116001146111e0576000926111d5575b50508160011b916000199060031b1c19161760028301555b6060810151600383015560808101518051906001600160401b038211610fb8578190610cec82610ce360048801546126ee565b60048801612b1e565b602090601f831160011461116357600092611158575b50508160011b916000199060031b1c19161760048301555b60a08101518051906001600160401b038211610fb8578190610d4c82610d4360058801546126ee565b60058801612b1e565b602090601f83116001146110e6576000926110db575b50508160011b916000199060031b1c19161760058301555b60c0810151600683015560e08101518051906001600160401b038211610fb857600160401b8211610fb85760209060078501548360078701558084106110bb575b500160078401600052602060002060005b8381106110a757505050506101008101518051906001600160401b038211610fb857600160401b8211610fb85760206008850191825484845580851061108a575b500190600052602060002060005b838110611076575050506101208201516009840155506101400151805190600160401b8211610fb857600a83015482600a850155808310610fce575b506020600a9101920160005260206000206000925b828410610e985761020b8787610e938b896084356000526009602052604060002091612aee565b612c0b565b80516020815191610ea98386612b63565b01908360005260206000206000925b828410610ed5575050505060016020819201920193019290610e6c565b80518051906001600160401b038211610fb857610efc82610ef686546126ee565b86612b1e565b602090601f8311600114610f48579282600194936020938695600092610f3d575b5050600019600383901b1c191690841b1785555b01920193019290610eb8565b015190503880610f1d565b908460005260206000209160005b601f1985168110610fa0575083602093600196938796938794601f19811610610f87575b505050811b018555610f31565b015160001960f88460031b161c19169055388080610f7a565b91926020600181928685015181550194019201610f56565b634e487b7160e01b600052604160045260246000fd5b600a84016000526020600020908382015b8183018110610fef575050610e57565b80546000825580611004575b50600101610fdf565b816000526020600020908101905b81811061101f5750610ffb565b8061102c600192546126ee565b80611039575b5001611012565b601f8111831461104f5750600081555b8d611032565b60009082825261106d601f60208420920160051c8201858301612b07565b81835555611049565b600190602084519401938184015501610e1b565b6110a1908460005285846000209182019101612b07565b8a610e0d565b600190602084519401938184015501610dcc565b6110d5906007870160005284846000209182019101612b07565b89610dbb565b015190508880610d62565b9250600585016000526020600020906000935b601f198416851061113d576001945083601f19811610611124575b505050811b016005830155610d7a565b015160001960f88460031b161c19169055888080611114565b818101518355602094850194600190930192909101906110f9565b015190508880610d02565b9250600485016000526020600020906000935b601f19841685106111ba576001945083601f198116106111a1575b505050811b016004830155610d1a565b015160001960f88460031b161c19169055888080611191565b81810151835560209485019460019093019290910190611176565b015190508880610c98565b9250600285016000526020600020906000935b601f1984168510611237576001945083601f1981161061121e575b505050811b016002830155610cb0565b015160001960f88460031b161c1916905588808061120e565b818101518355602094850194600190930192909101906111f3565b015190508880610c38565b9250600185016000526020600020906000935b601f19841685106112b4576001945083601f1981161061129b575b505050811b016001830155610c50565b015160001960f88460031b161c1916905588808061128b565b81810151835560209485019460019093019290910190611270565b015190508880610bdb565b9250846000526020600020906000935b601f198416851061132b576001945083601f19811610611312575b505050811b018255610bf0565b015160001960f88460031b161c19169055888080611305565b818101518355602094850194600190930192909101906112ea565b34610193576020366003190112610193576004356001600160401b03811161019357602061137b61055e92369060040161247e565b919060606101e060405161138e816124ab565b828152828582015282604082015260008382015260006080820152600060a0820152600060c0820152600060e08201526000610100820152600061012082015260006101408201526000610160820152600061018082015260006101a082015260006101c082015201528260405193849283378101600a8152030190206114e7600f6040519261141d846124ab565b61142681612728565b845261143460018201612728565b602085015261144560028201612728565b60408501526003810154606085015260ff600482015416611465816126b0565b6080850152600581015460a0850152600681015460c0850152600781015460e085015260088101546101008501526009810154610120850152600a810154610140850152600b810154610160850152600c810154610180850152600d8101546101a085015260ff600e820154166114db816126b0565b6101c085015201612d51565b6101e0820152604051918291602083526101e061154461152e611518845161020060208901526102208801906125ce565b6020850151878203601f190160408901526125ce565b6040840151868203601f190160608801526125ce565b9160608101516080860152608081015161155d816126b0565b60a086015260a081015160c086015260c081015160e086015260e08101516101008601526101008101516101208601526101208101516101408601526101408101516101608601526101608101516101808601526101808101516101a08601526101a08101516101c08601526101c08101516115d8816126b0565b858301520151838203601f190161020085015261261f565b346101935761020b6116013661267b565b906040519261160f846124e3565b6000845261063e8383836127ce565b34610193576040366003190112610193576004356001600160401b03811161019357611650600691369060040161247e565b6040519291819084378201916008835260208160243594030190200155600080f35b346101935761020b6116833661267b565b916127ce565b34610193576040366003190112610193576001600160401b03600435818111610193576116ba90369060040161247e565b906024359283116101935760206116f6926116da8295369060040161247e565b9290938260405193849283378101600c81520301902091612aee565b54604051908152f35b34610193576040366003190112610193576024356001600160401b0381116101935761176a61175c602061173a61055e94369060040161258d565b60043560005260098252604060002082604051948386809551938492016125ab565b820190815203019020612d51565b60405191829160208352602083019061261f565b34610193576101a0366003190112610193576004356001600160401b038111610193576117af90369060040161247e565b6024356001600160401b038111610193576117ce90369060040161247e565b906044356001600160401b038111610193576117f161183d91369060040161247e565b6117fc6084356126b0565b6118316040519461180c866124e3565b600086526040519661181d886124ab565b611828368a8c612556565b88523691612556565b60208601523691612556565b604083015260643560608301526118556084356126b0565b608435608083015260a43560a083015260c43560c083015260e43560e08301526101043561010083015261012435610120830152610144356101408301526101643561016083015261018435610180830152605a6101a083015260016101c08301526101e082015260405182848237602081848101600a81520301902081518051906001600160401b038211610fb85781906118f582610ef686546126ee565b602090601f8311600114611dd657600092611dcb575b50508160011b916000199060031b1c19161781555b60208201518051906001600160401b038211610fb85781906119528261194960018701546126ee565b60018701612b1e565b602090601f8311600114611d5957600092611d4e575b50508160011b916000199060031b1c19161760018201555b60408201518051906001600160401b038211610fb8576119b0826119a760028601546126ee565b60028601612b1e565b602090601f8311600114611cd85791806101e09492600f94600092611ccd575b50508160011b916000199060031b1c19161760028201555b60608401516003820155608084015160048201611a04826126b0565b611a0d826126b0565b60ff199160ff83835416911617905560a0850151600583015560c0850151600683015560e0850151600783015561010085015160088301556101208501516009830155610140850151600a830155610160850151600b830155610180850151600c8301556101a0850151600d830155600e82019060ff6101c087015191611a93836126b0565b611a9c836126b0565b8354169116179055019101516020815191611ab78385612b63565b01916000526020600020916000905b828210611bea578585600b54600160401b811015610fb8576001810180600b55811015611bd457600b6000527f0175b7a638427703f0dbe7bb9bbf987a2551717b34e79f33b5b1008d1fa01db901906001600160401b038111610fb857611b3781611b3184546126ee565b84612b1e565b6000601f8211600114611b7257819293600092611b67575b5050600019600383901b1c191660019190911b179055005b013590508380611b4f565b601f198216938360005260206000209160005b868110611bbc5750836001959610611ba2575b505050811b019055005b0135600019600384901b60f8161c19169055838080611b98565b90926020600181928686013581550194019101611b85565b634e487b7160e01b600052603260045260246000fd5b80518051906001600160401b038211610fb857611c1182611c0b88546126ee565b88612b1e565b602090601f8311600114611c5d579282600194936020938695600092611c52575b5050600019600383901b1c191690841b1787555b01940191019092611ac6565b015190508b80611c32565b908660005260206000209160005b601f1985168110611cb5575083602093600196938796938794601f19811610611c9c575b505050811b018755611c46565b015160001960f88460031b161c191690558b8080611c8f565b91926020600181928685015181550194019201611c6b565b0151905088806119d0565b906002840160005260206000209160005b601f1985168110611d365750926101e09492600192600f9583601f19811610611d1d575b505050811b0160028201556119e8565b015160001960f88460031b161c19169055888080611d0d565b91926020600181928685015181550194019201611ce9565b015190508680611968565b9250600184016000526020600020906000935b601f1984168510611db0576001945083601f19811610611d97575b505050811b016001820155611980565b015160001960f88460031b161c19169055868080611d87565b81810151835560209485019460019093019290910190611d6c565b01519050868061190b565b9250836000526020600020906000935b601f1984168510611e27576001945083601f19811610611e0e575b505050811b018155611920565b015160001960f88460031b161c19169055868080611e01565b81810151835560209485019460019093019290910190611de6565b3461019357604036600319011261019357611e5b6125f3565b602435611e6781612954565b33151580611f16575b80611ee9575b611ed1576001600160a01b039283169282918491167f8c5be1e5ebec7d5bd14f71427d1e84f3dd0314c0f7b2291e5b200ac8c7c3b925600080a4600090815260046020526040902080546001600160a01b0319169091179055005b60405163a9fbf51f60e01b8152336004820152602490fd5b5060018060a01b038116600052600560205260406000203360005260205260ff6040600020541615611e76565b506001600160a01b038116331415611e70565b3461019357602036600319011261019357600435611f4681612954565b506000526004602052602060018060a01b0360406000205416604051908152f35b3461019357600036600319011261019357604051600090600054611f8a816126ee565b8083526001918083169081156108975750600114611fb25761055e836108458187038261251a565b600080805260209450917f290decd9548b62a8d60345a988386fc84ba6bc95484008f6362f93160ef3e5635b828410611ff75750505081019091019061084581610835565b8054858501870152928501928101611fde565b34610193576060366003190112610193576001600160401b036004358181116101935761203b90369060040161247e565b90916044358181116101935761205590369060040161258d565b926007549160405194612067866124e3565b6000865233156123e057836000526020936002855260018060a01b036040600020541696871515806123ad575b3360008181526003895260408082208054600190810190915586835260028b5290822080546001600160a01b031916841790559a8592917fddf252ad1be2c89b69c2b068fc378daa952ba7f163c4a11628f55a4df523b3ef9080a461239457333b61227b575b50506007549182600052600685526040600020918051918211610fb85761212b8261212585546126ee565b85612b1e565b8590601f83116001146121e457958094600894846121ae98957ff8e1a15aba9398e019f0b49df1a4fde98ee17ae345cb5f6b5e2c27f5033e8ce7956121c79c9b6000926121d9575b5050600019600383901b1c1916908c1b1790555b604051908152a1600754948060405192833781019282845281602435940301902001612bf3565b90919082549060031b91821b91600019901b1916179055565b600754600019811461096a5701600755005b015190508d80612173565b889291601f1983169185600052886000209260005b818110612264575094848a9893946121c79c9b95600899947ff8e1a15aba9398e019f0b49df1a4fde98ee17ae345cb5f6b5e2c27f5033e8ce7986121ae9d9a1061224b575b505050811b019055612187565b015160001960f88460031b161c191690558d808061223e565b8284015185558c9690940193928a01928a016121f9565b856122ba916040999897995180938192630a85bd0160e11b968784523360048501526000602485015260448401526080606484015260848301906125ce565b03816000335af160009181612354575b5061232257873d1561231b573d6122e08161253b565b906122ee604051928361251a565b81523d60008383013e5b8051918261231857604051633250574960e11b8152336004820152602490fd5b01fd5b60606122f8565b959694956001600160e01b0319160361233c5786806120fa565b604051633250574960e11b8152336004820152602490fd5b9091508881813d831161238d575b61236c818361251a565b8101031261019357516001600160e01b0319811681036101935790896122ca565b503d612362565b6040516339e3563760e11b815260006004820152602490fd5b60008381526004602052604080822080546001600160a01b03191690558a82526003895290208054600019019055612094565b604051633250574960e11b815260006004820152602490fd5b34610193576020366003190112610193576004359063ffffffff60e01b821680920361019357602091632483248360e11b811490811561243b575b5015158152f35b6380ac58cd60e01b81149150811561246d575b811561245c575b5083612434565b6301ffc9a760e01b14905083612455565b635b5e139f60e01b8114915061244e565b9181601f84011215610193578235916001600160401b038311610193576020838186019501011161019357565b61020081019081106001600160401b03821117610fb857604052565b61016081019081106001600160401b03821117610fb857604052565b602081019081106001600160401b03821117610fb857604052565b61012081019081106001600160401b03821117610fb857604052565b90601f801991011681019081106001600160401b03821117610fb857604052565b6001600160401b038111610fb857601f01601f191660200190565b9291926125628261253b565b91612570604051938461251a565b829481845281830111610193578281602093846000960137010152565b9080601f83011215610193578160206125a893359101612556565b90565b60005b8381106125be5750506000910152565b81810151838201526020016125ae565b906020916125e7815180928185528580860191016125ab565b601f01601f1916010190565b600435906001600160a01b038216820361019357565b602435906001600160a01b038216820361019357565b908082519081815260208091019281808460051b8301019501936000915b84831061264d5750505050505090565b909192939495848061266b600193601f198682030187528a516125ce565b980193019301919493929061263d565b6060906003190112610193576001600160a01b0390600435828116810361019357916024359081168103610193579060443590565b600211156106cc57565b90815180825260208080930193019160005b8281106126da575050505090565b8351855293810193928101926001016126cc565b90600182811c9216801561271e575b602083101461270857565b634e487b7160e01b600052602260045260246000fd5b91607f16916126fd565b906040519182600082549261273c846126ee565b9081845260019485811690816000146127ab5750600114612768575b50506127669250038361251a565b565b9093915060005260209081600020936000915b81831061279357505061276693508201013880612758565b8554888401850152948501948794509183019161277b565b91505061276694506020925060ff191682840152151560051b8201013880612758565b6001600160a01b0391821692909183156123e0576000928284528260209560028752604096848888205416968791331515806128be575b509060027fddf252ad1be2c89b69c2b068fc378daa952ba7f163c4a11628f55a4df523b3ef928461288b575b858352600381528b8320805460010190558683525289812080546001600160a01b0319168517905580a4169283830361286a5750505050565b6064945051926364283d7b60e01b8452600484015260248301526044820152fd5b600087815260046020526040902080546001600160a01b0319169055848352600381528b83208054600019019055612831565b91939450915080612913575b156128da57859291879138612805565b8786886128f7576024915190637e27328960e01b82526004820152fd5b604491519063177e802f60e01b82523360048301526024820152fd5b503387148015612938575b806128ca57508582526004815233858984205416146128ca565b5086825260058152878220338352815260ff888320541661291e565b6000818152600260205260409020546001600160a01b0316908115612977575090565b60249060405190637e27328960e01b82526004820152fd5b813b61299c575b50505050565b604051630a85bd0160e11b8082523360048301526001600160a01b039283166024830152604482019490945260806064820152602095929091169390929083906129ea9060848301906125ce565b039285816000958187895af1849181612a93575b50612a5e575050503d600014612a56573d612a188161253b565b90612a26604051928361251a565b81528091843d92013e5b80519283612a5157604051633250574960e11b815260048101849052602490fd5b019050fd5b506060612a30565b919450915063ffffffff60e01b1603612a7b575038808080612996565b60249060405190633250574960e11b82526004820152fd5b9091508681813d8311612ad0575b612aab818361251a565b81010312612acc57516001600160e01b031981168103612acc5790386129fe565b8480fd5b503d612aa1565b6001600160401b038111610fb85760051b60200190565b6020919283604051948593843782019081520301902090565b818110612b12575050565b60008155600101612b07565b9190601f8111612b2d57505050565b612766926000526020600020906020601f840160051c83019310612b59575b601f0160051c0190612b07565b9091508190612b4c565b600160401b8211610fb857805491808255828110612b8057505050565b600091825260209081832093840193015b838110612b9e5750505050565b8083612bac600193546126ee565b80612bba575b505001612b91565b601f8082118514612bd157505081555b8338612bb2565b612bea90848452868420920160051c8201858301612b07565b81835555612bca565b8054821015611bd45760005260206000200190600090565b90918154600160401b811015610fb857612c2c906001938482018155612bf3565b939093612cec576001600160401b038211610fb857612c4f82610ef686546126ee565b600090601f8311600114612c8957928293918392600094612c7e575b50501b916000199060031b1c1916179055565b013592503880612c6b565b601f19831691858152836020938483209483905b88838310612cd25750505010612cb8575b505050811b019055565b0135600019600384901b60f8161c19169055388080612cae565b868601358855909601959384019387935090810190612c9d565b634e487b7160e01b600052600060045260246000fd5b9060405191828154918282526020928383019160005283600020936000905b828210612d37575050506127669250038361251a565b855484526001958601958895509381019390910190612d21565b908154612d5d81612ad7565b92612d6b604051948561251a565b818452600090815260208082208186015b848410612d8a575050505050565b6001838192612d9885612728565b815201920193019290612d7c56fea26469706673582212204ea11a6dc2de1e08f4fde1e67d39dbba6742dc58d928699da2b0fcba28c8d15764736f6c63430008140033",
  "linkReferences": {},
  "deployedLinkReferences": {}
}